:100000000C946E000C9496000C9496000C94490489
:100010000C9496000C94CD030C9496000C949600CE
:100020000C9496000C9496000C9496000C949600F8
:100030000C9496000C94E91A0C9496000C9496007B
:100040000C9450220C9496000C946C200C949E20DE
:100050000C9496000C9496000C9496000C949600C8
:100060000C94AD1B0C9496007C3C3E5E2B3D3F2FC8
:100070005B5D3B2C2A225C000000000800020100AE
:100080000003040700000000000000000102040853
:1000900010204080010204081020010204081020F2
:1000A000040404040404040402020202020203031E
:1000B00003030303000000002300260029000000C2
:1000C0000000250028002B0000000000240027006D
:1000D0002A008604940BDB0E9F1DCE2011241FBE28
:1000E000CFEFD8E0DEBFCDBF12E0A0E0B1E0E2E5A7
:1000F000FBE402C005900D92A030B107D9F726E0CD
:10010000A0E0B2E001C01D92AB3FB207E1F710E002
:10011000CEE6D0E004C02197FE010E943924C93602
:10012000D107C9F70E94FC200C94A7250C9400006D
:100130008DE00E94E22361E068278DE00C94B223F9
:10014000FFCFCF92DF92EF92FF92CF93C82F682F0D
:1001500070E080E090E00E94441E20E030E040E744
:1001600052E40E94A31D9B01AC0160E074E284E7AD
:1001700099E40E94A31D20E030E040E05FE30E948C
:10018000D21E0E94151E6B017C016DE571E081E5B8
:1001900096E00E944B212AE030E0B701A60181E5FC
:1001A00096E00E943E226BE071E081E596E00E94BD
:1001B0004B214AE050E06C2F81E596E00E94272217
:1001C000C701B601CF91FF90EF90DF90CF900895D7
:1001D000809106010E94A10020E1209381001092ED
:1001E0008000DC01CB0173E0880F991FAA1FBB1FA1
:1001F0007A95D1F7009721E0A207B10520F421E01C
:1002000020938E0542C0009728E0A207B10558F45C
:1002100022E020938E0563E0B695A7959795879584
:100220006A95D1F732C0009720E4A207B10558F4CF
:1002300023E020938E0556E0B695A7959795879570
:100240005A95D1F722C00097A10521E0B20740F4EA
:1002500024E020938E05892F9A2FAB2FBB2715C042
:100260000097A10524E0B20758F425E020938E05FD
:100270003AE0B695A795979587953A95D1F705C039
:1002800085E080938E058FEF9FEF9093900580938C
:100290008F0580918F0590919005909387008093B2
:1002A000860080918E0580618093810061E089E005
:1002B0000E947623809180008068809380008091E6
:1002C0008F0590919005A0E0B0E0B695A795979521
:1002D0008795909389008093880080918E05806136
:1002E0008093810088E990E090938D0580938C0540
:1002F00081E080936F000895CF9380913203C1E035
:100300008C27809332038091320381110AC080E1EF
:100310008093810060E08DE00E94B22360E171E093
:1003200075C0809106010E94A10020E12093810008
:1003300010928000DC01CB0163E0880F991FAA1F97
:10034000BB1F6A95D1F7009721E0A207B10518F409
:10035000C0938E0542C0009728E0A207B10558F46B
:1003600022E020938E0553E0B695A7959795879543
:100370005A95D1F732C0009720E4A207B10558F48E
:1003800023E020938E0546E0B695A795979587952F
:100390004A95D1F722C00097A10521E0B20740F4A9
:1003A00024E020938E05892F9A2FAB2FBB2715C0F1
:1003B0000097A10524E0B20758F425E020938E05AC
:1003C0002AE0B695A795979587952A95D1F705C008
:1003D00085E080938E058FEF9FEF9093900580933B
:1003E0008F0580918F059091900590938700809361
:1003F000860080918E058061809381006CE171E0C0
:1004000081E596E00E94582165E371E081E596E080
:10041000CF910C945821CF92DF92EF92FF9280916E
:10042000060190E0C2970CF4A2C0809106018150B1
:1004300080930601809106010E94A1006B017C015E
:10044000DC01CB0163E0880F991FAA1FBB1F6A95CF
:10045000D1F7009721E0A207B10520F421E0209315
:100460008E0542C0009728E0A207B10558F422E0AB
:1004700020938E0553E0B695A795979587955A9545
:10048000D1F732C0009720E4A207B10558F423E069
:1004900020938E0546E0B695A795979587954A9542
:1004A000D1F722C00097A10521E0B20740F424E073
:1004B00020938E05892F9A2FAB2FBB2715C000974D
:1004C000A10524E0B20758F425E020938E052AE028
:1004D000B695A795979587952A95D1F705C085E09C
:1004E00080938E058FEF9FEF9093900580938F05FB
:1004F00080918F059091900590938700809386005E
:1005000080918E0580618093810061E271E081E5D8
:1005100096E00E94582162E471E081E596E00E9435
:1005200058216AE471E081E596E00E944B216091D8
:1005300006014AE050E081E596E00E94272268E546
:1005400071E081E596E00E944B212AE030E0B7019E
:10055000A60181E596E00E94082261E271E081E552
:1005600096E0FF90EF90DF90CF900C945821FF9091
:10057000EF90DF90CF900895CF92DF92EF92FF92AD
:100580008091060190E08B3D91050CF0A7C0809111
:1005900006018F5F80930601809106010E94A100F1
:1005A0006B017C0180E18093810010928000D70173
:1005B000C60163E0880F991FAA1FBB1F6A95D1F778
:1005C000009721E0A207B10520F421E020938E05D9
:1005D00042C0009728E0A207B10558F422E020931A
:1005E0008E0553E0B695A795979587955A95D1F7BF
:1005F00032C0009720E4A207B10558F423E020930D
:100600008E0546E0B695A795979587954A95D1F7BB
:1006100022C00097A10521E0B20740F424E0209316
:100620008E05892F9A2FAB2FBB2715C00097A105E8
:1006300024E0B20758F425E020938E052AE0B69511
:10064000A795979587952A95D1F705C085E0809362
:100650008E058FEF9FEF9093900580938F0580918B
:100660008F059091900590938700809386008091EC
:100670008E0580618093810061E271E081E596E002
:100680000E94582162E471E081E596E00E945821C1
:100690006AE471E081E596E00E944B2160910601D9
:1006A0004AE050E081E596E00E94272269E671E089
:1006B00081E596E00E944B212AE030E0B701A601D7
:1006C00081E596E00E94082261E271E081E596E012
:1006D000FF90EF90DF90CF900C945821FF90EF9017
:1006E000DF90CF900895883038F08E3040F086311A
:1006F00048F4ECE6F0E008C0EDE6F0E005C0EBE61B
:10070000F0E002C0E0E0F0E09081883068F441E081
:1007100050E060E070E0082E04C0440F551F661FD3
:10072000771F0A94D2F714C0282F30E08E3018F4C7
:100730002850310902C02E50310941E050E060E0FC
:1007400070E004C0440F551F661F771F2A95D2F72B
:10075000492B40832BB3883050F031E08E3008F4C1
:1007600030E091E001C0990F3A95EAF701C094E0BA
:10077000922B9BBB90916800883050F021E08E3026
:1007800008F420E081E001C0880F2A95EAF701C053
:1007900084E0892B8093680008951F920F920FB612
:1007A0000F9211242F933F934F935F936F937F93F7
:1007B0008F939F93AF93BF93EF93FF9380916800C4
:1007C0008B7F80936800DA9A60E177E280E090E0C6
:1007D0000E94CB2285E00E94E223892B19F40E941B
:1007E0007C010CC086E00E94E223892BF1F487E0B3
:1007F0000E94E2230197C9F40E94BC028091680024
:10080000846080936800DA9AFF91EF91BF91AF9175
:100810009F918F917F916F915F914F913F912F9118
:100820000F900FBE0F901F90189587E00E94E22353
:10083000892B21F786E00E94E2230197F9F60E94B6
:100840000B02DCCFCF93C0E061E08C2F0E94B2237B
:10085000CF5FCD30C9F7CEE061E08C2F0E94B2238C
:10086000CF5FC431C9F786E00E94730387E00E941E
:10087000730385E0CF910C94730380913103815011
:10088000809331030895809131038F5F809331030A
:1008900008951F920F920FB60F9211242F933F933A
:1008A0004F935F936F937F938F939F93AF93BF9378
:1008B000EF93FF93809168008E7F80936800DA9AAF
:1008C00060E177E280E090E00E94CB2288E00E9425
:1008D000E223892B19F40E94430407C089E00E9497
:1008E000E223892B11F40E943D04FF91EF91BF9107
:1008F000AF919F918F917F916F915F914F913F91B8
:100900002F910F900FBE0F901F9018958F92AF925E
:10091000CF92EF920F931F9283E08F9387E0882E00
:1009200096E0A92E25E0C22E34E0E32E00E021E07F
:1009300042E067E280E092E00E940C070F900F9087
:100940000F91EF90CF90AF908F90089520E044E00A
:1009500064E180E092E00E94990761E080E092E02B
:100960000E94930661E08DE00C9476230F931F9311
:10097000CF93DF93CDB7DEB7E6970FB6F894DEBF1F
:100980000FBECDBFCE014C960E946E0868E771E0A5
:1009900083E393E00E94890B882311F010E064C088
:1009A00021E048E751E063E373E0CE0101960E9445
:1009B000FF0A8B819C819F8F8E8F8D819E81AF815D
:1009C000B88588A399A3AAA3BBA389859A85AB857B
:1009D000BC858CA39DA3AEA3BFA38DE0FE013D9675
:1009E000DE01989601900D928A95E1F78A8D9B8D94
:1009F0009EAB8DABCE014C960E94E208182F882347
:100A000069F268E771E081E596E00E94582188E18B
:100A100091E0E8E1F2E0DF019C011D9221503040BD
:100A2000E1F700E0CE014C960E94A108892BC1F0AD
:100A3000CE014C960E94810834E0039FF0011124FE
:100A4000E85EFD4F71836083CE014C960E940508DD
:100A5000CE014C960E94A108892BB1F70F5FE2CF1F
:100A6000CE014C960E94D008812FE6960FB6F894DE
:100A7000DEBF0FBECDBFDF91CF911F910F910895C3
:100A80006AE083E393E00E94EC09882339F00E9436
:100A9000B604882319F081E080933003089526E09E
:100AA00040E855E260E070E081E596E00E940720B2
:100AB00063E871E081E596E00E9458210E944005BC
:100AC0000E94A6040E94E8000E9422046FE871E0E0
:100AD00080E092E00C944B21FC0112828FEF818325
:100AE000108213820895FC018381882331F0611103
:100AF00003C08FEF81830895118208958FEF95E0F1
:100B00000E947F1D8FEF95E00E949C1D91E0811156
:100B100090E0892F0895CF93DF93EC016A838FEFE4
:100B200095E00E94751D6A81CE010E947E058B832F
:100B3000882329F08FEF95E00E94E21C88838B8147
:100B400090E0DF91CF910895CF93DF93FC01238153
:100B50002223B1F0EC01818180956823608362815A
:100B60008FEF95E00E947F1D68818FEF95E00E94D6
:100B7000361D8FEF95E00E949C1D282F30E002C0AB
:100B800020E030E081E090E0232B11F080E090E065
:100B9000DF91CF91089508950895DC01ED91FC91C6
:100BA0000284F385E02D41E0099581E090E008950D
:100BB000FC01138212822BE931E0318320830895F6
:100BC000DC01ED91FC910084F185E02D6FEF09943B
:100BD000DC01ED91FC910284F385E02D40E0099465
:100BE00061E00E94E80580ED97E00C940723FC018A
:100BF0006581262F246025836C600C94E805CF93D3
:100C0000DF93EC01423018F08C8188608C834F8335
:100C10006887222329F0413019F48C8184608C8309
:100C200064E670E080E090E00E94CB226C8164FD7D
:100C300031C0E881F9810284F385E02D42E063E070
:100C4000CE01099584E991E10E940723E881F981A9
:100C50000284F385E02D42E063E0CE01099586E948
:100C600090E00E940723E881F9810284F385E02D5A
:100C700042E063E0CE01099586E990E00E940723F7
:100C8000E881F9810284F385E02D42E062E0CE0143
:100C9000099516C06062CE010E94E80584E991E1E1
:100CA0000E9407236C816062CE010E94E80586E9FC
:100CB00090E00E9407236C816062CE010E94E805EB
:100CC00086E990E00E9407236C816062CE010E9459
:100CD000E8058CE390E00E94072384E08D83CE0139
:100CE0000E94F705CE010E94F00582E08E8366E047
:100CF000CE010E94E805CE01DF91CF910C94E00572
:100D000021E001C0220F6A95EAF7DC011B962C93C3
:100D10001B9719964C931997ED91FC910084F185DE
:100D2000E02D60E00994FC018385882391F0918592
:100D3000911103C0611105C006C0913021F4611109
:100D400002C0848701C014866485CF010D960C947F
:100D5000A40508950F931F93CF93DF938C01EC01AB
:100D60002D96FC016285CE010E948B05019769F4E6
:100D700061E0CE010E947305F801148260E0CE01AB
:100D80000E94A40581E090E002C080E090E0DF9145
:100D9000CF911F910F9108958F92AF92CF92EF92C2
:100DA0000F93CF93DF93CDB7DEB7FC016287138635
:100DB0001486118681E0982F01C0990F4A95EAF7B1
:100DC000918B982F01C0990F2A95EAF7928B982F53
:100DD00001C0990F0A95EAF7938B982F01C0990FDC
:100DE000EA94EAF7948B982F01C0990FCA94EAF716
:100DF000958B982F01C0990FAA94EAF7968B01C0A2
:100E0000880F8A94EAF7878BDF91CF910F91EF904B
:100E1000CF90AF908F9008956F927F928F92AF9204
:100E2000CF92EF92FF920F931F93CF93DF9300D057
:100E30001F92CDB7DEB73C011989FA882B834A830C
:100E400069830E94D8058BEA91E0F3019183808346
:100E5000C3010D960E946C052B814A816981C301F3
:100E60000E94CC064F2D612FC3010F900F900F9061
:100E7000DF91CF911F910F91FF90EF90CF90AF90A6
:100E80008F907F906F900C948006FF920F931F932A
:100E9000CF93DF93EC01F62E8C01035F1F4F9989EE
:100EA000692BC8010E94A405998990956F2D69232B
:100EB000C801DF91CF911F910F91FF900C94A40571
:100EC000362FFC01749624E060E030FF02C05081B0
:100ED000652B3695215031962111F7CF413011F411
:100EE000FC014389FC012485622B642B0C9445078B
:100EF0000F931F93CF93DF93062F0F70423019F497
:100F000040E0602F10C0142F262FEC0130E0B90113
:100F100084E0759567958A95E1F7CE010E94600798
:100F2000412F602FCE01DF91CF911F910F910C9433
:100F300060070F931F93CF93DF9300D01F92CDB71D
:100F4000DEB78C012B834A8369830E94AA062B811A
:100F50004A816981C8010F900F900F90DF91CF9166
:100F60001F910F910C94FF05CF93DF931F92CDB784
:100F7000DEB76983DC01ED91FC910280F381E02D05
:100F800041E050E0BE016F5F7F4F09950F90DF9108
:100F9000CF910895CF93DF93EC01898D9A8D0097BF
:100FA00039F481E090E09B838A8380E090E00BC07D
:100FB000FC01138212820E945814E98DFA8D22815D
:100FC0003381232B71F7DF91CF910895FC01818D3F
:100FD000928D009711F00C94EF110895CF93DF9349
:100FE0001F92CDB7DEB741E050E0BE016F5F7F4F8B
:100FF0000E940B10019719F4898190E002C08FEFD5
:101000009FEF0F90DF91CF910895FC01818D928D1C
:10101000009711F00C94EE078FEF9FEF08950F9358
:101020001F93CF93DF93FC01818D928D0097B9F0D0
:10103000EF010E94EE078C010F3F8FEF180791F030
:10104000898D9A8DFC014285538564857585415053
:101050005109610971090E945911C80105C080E058
:1010600090E002C08FEF9FEFDF91CF911F910F9122
:101070000895EF92FF920F931F93CF93DF93EC01AC
:101080007B018A011B821A8288EE93E0A0E0B0E027
:101090008C839D83AE83BF838BEB91E099838883A0
:1010A0008DE190E00E944E249A8F898F009779F00D
:1010B0002DE1F701DC0101900D922A95E1F74CE05A
:1010C00050E0B801CE010C960E949825188EDF9151
:1010D000CF911F910F91FF90EF900895FC01138223
:1010E000128288EE93E0A0E0B0E084839583A6832B
:1010F000B7838BEB91E091838083128E118E1486DF
:101100000895DC015996ED91FC915A97309729F09A
:10111000628573858485958508956FEF7FEFCB0198
:101120000895DC015996ED91FC915A97309729F07A
:101130006389748985899689089560E070E0CB01A0
:101140000895CF92DF92EF92FF92CF93DF93FC014D
:10115000218D328D232BD9F0EC010E9491086B0177
:101160007C01CE010E948108A7019601261B370B46
:10117000480B590BDA01C901811530E89307A10525
:10118000B10538F08FEF9FE7A0E0B0E002C080E04B
:1011900090E0DF91CF91FF90EF90DF90CF90089596
:1011A000CF93DF93EC01898D9A8D009741F00E94D7
:1011B0003612898D9A8D0E94E3241A8E198EDF9142
:1011C000CF910895DC015996ED91FC915A97309793
:1011D00021F081E09581911101C080E008951F9375
:1011E000CF93DF93CDB7DEB76D970FB6F894DEBF20
:1011F0000FBECDBFAB011C821B822DEC31E03A83C8
:1012000029831E8221E0BC01CE0101960E946A134F
:1012100011E0811102C010E004C0CE0101960E94CD
:101220003612812F6D960FB6F894DEBF0FBECDBF7C
:10123000DF91CF911F9108950F931F93CF93DF9369
:10124000DA01EB0128813981FC01E20FF31F4081B3
:101250004F3211F42F5F3F4F8D01E0E0F0E0AC0121
:10126000420F531FEA0158815F3259F0552349F06C
:1012700031962F5F3F4FE80159938E01EC30F10515
:1012800071F7EA0FFB1F1082FC01E20FF31F408190
:101290004F3211F42F5F3F4FFB0131832083FC015C
:1012A000E20FF31F81E09081911101C080E0DF9196
:1012B000CF911F910F9108954F925F926F927F92FD
:1012C0008F929F92AF92BF92CF92DF92EF92FF9256
:1012D0000F931F93CF93DF93CDB7DEB7C954D109D6
:1012E0000FB6F894DEBF0FBECDBF5C016B013A01B3
:1012F000490119A218A28DEC91E09F8F8E8F1BA23D
:101300001C821B829A8389831E822A961FAE1EAE80
:101310002A978B017E018EE1E80EF11C4424439450
:10132000AE01455C5F4FBE01685B7F4FC5010E9407
:101330001C09582E482F44259401BE01655C7F4F3F
:10134000C801F3010995811108C00C151D0519F09C
:10135000C8010E94361280E027C05520B9F021E074
:10136000AE01455C5F4FB801C7010E946A13582E59
:101370000C151D0599F0C8010E943612552059F32D
:10138000902F812F8701E92EF82ECACF0C151D054D
:1013900019F0C8010E94361281E006C08823D9F2F4
:1013A0008E010F5F1F4FECCFC75BDF4F0FB6F89476
:1013B000DEBF0FBECDBFDF91CF911F910F91FF9088
:1013C000EF90DF90CF90BF90AF909F908F907F90E5
:1013D0006F905F904F9008950F931F93CF93DF937B
:1013E000EC01462F61E00E94C60C882391F08E012B
:1013F000045F1F4F41E0BE01C8010E949C19882371
:1014000051F0B801CE018A960E94BA0F91E0811185
:101410000AC090E008C040E0BE01C8010E949C19CB
:101420008823B9F3EECF892FDF91CF911F910F91D0
:101430000895FC01DB0112968D919C911397938383
:1014400082838DEC91E09183808314968C91149724
:10145000848315968C911597858316964D915D9191
:101460006D917C91199746835783608771871A968F
:101470004D915D916D917C911D9742875387648753
:1014800075871E964D915D916D917C915197468720
:101490005787608B718B52968C915297828B5396A3
:1014A0004D915D916D917C915697438B548B658BDB
:1014B000768B57964D915D916D917C915A97478BA4
:1014C000508F618F728F5B968D919C915C97948FFA
:1014D000838F08954F925F926F927F928F929F9227
:1014E000AF92BF92CF92DF92EF92FF920F931F9332
:1014F000CF93DF93CDB7DEB7C754D1090FB6F894B9
:10150000DEBF0FBECDBF6C015A014901665D7F4F42
:101510007E018EE1E80EF11CC7010E94190A1C82AF
:101520001B828DEC91E09A8389831E828501FE01E6
:1015300031963F0127016FE270E0C8010E948D25BE
:101540000097D9F1F80120812F3219F40F5F1F4F56
:10155000F2CF801B8D3008F08CE0E82EF12CA70133
:10156000B801CE01CB960E949825EBE3F0E0EC0F9A
:10157000FD1FEE0DFF1D1082C3010E94361221E0F7
:10158000AE01455C5F4FB201C3010E946A13811135
:1015900009C0F601138212828DEC91E09183808361
:1015A000158214C00E0D1F1DC2010E943612942D0B
:1015B000852D2301692E782EBECF0A191B09F4014F
:1015C00011830083B201C6010E94190AC601C95BDA
:1015D000DF4F0FB6F894DEBF0FBECDBFDF91CF91C6
:1015E0001F910F91FF90EF90DF90CF90BF90AF9041
:1015F0009F908F907F906F905F904F900895AF92E3
:10160000BF92CF92DF92FF920F931F93CF93DF93FE
:10161000CDB7DEB7C955D1090FB6F894DEBF0FBEFE
:10162000CDBF6C015B018A01F22E9E01285A3F4F0B
:10163000CE01CB960E946A0A6A968EAD9FAD6A97DC
:10164000080F191FF801808181110AC0BE01655C75
:101650007F4FCE0101960E94190A47EC51E041C02C
:1016600019A218A28DEC91E09F8F8E8F1BA221965C
:101670008FAD2197811104C0C6010E946E0837C04A
:101680008250823060F4B501665D7F4F2F2DA80136
:10169000CE014E960E946A13811110C0EDCF2F2DFE
:1016A000A801BE01655C7F4FCE014E960E946A1371
:1016B000882311F3CE01CB960E9436129F2D96708F
:1016C00041F049A95AA96BA97CA9CE014E960E9466
:1016D0005911BE01625E7F4FCE0101960E94190A28
:1016E000A801BE016F5F7F4FC6010E943908C60185
:1016F000C75ADF4F0FB6F894DEBF0FBECDBFDF91E4
:10170000CF911F910F91FF90DF90CF90BF90AF903E
:101710000895FB01BC01665D7F4F20E030E04FEE95
:1017200058E0CF010C945C09E3E3F3E015821682E4
:101730001186138682E090E0A0E0B0E08487958770
:10174000A687B78713A215A614A68DEC91E093A7E0
:1017500082A717A6089520918A05222399F04FB7F2
:10176000F89420918A05213059F42DB320938805EF
:101770003DB320918905209523232DBB4FBF02C087
:10178000409388058CBD9DBD08958EBD00000DB4AD
:1017900007FEFDCF8EB508958FEF0C94C50B809199
:1017A0008A05882361F09FB7F89420918A0580917B
:1017B0008805213019F48DBB9FBF08958FBF089510
:1017C00061E0FC0184810E94B22380917C03882324
:1017D00021F010927C030C94CF0B0895CF93DF93EC
:1017E000EC0180917C03811109C081E080937C032E
:1017F00080917D0390917E030E94AB0B60E08C8111
:10180000DF91CF910C94B223CF93DF93EC018E81C3
:10181000882389F08F8198859C012F5F3F4F3887FF
:101820002F838230924018F40E94CC0BF3CFCE016C
:101830000E94E00B1E82DF91CF910895673028F05F
:1018400026E1FC01258380E00895623081F030F4C8
:10185000662359F06130B1F480E515C0643059F069
:1018600040F0653079F482E50EC080E505C081E581
:1018700003C081E508C082E580937D0381E0809309
:101880007E03089583E580937D0310927E0381E0BB
:1018900008950F931F93CF93DF93EB010E949A2239
:1018A0008B010E94CC0B8F3F49F00E949A22601B53
:1018B000710B6C177D07A8F380E001C081E0DF9118
:1018C000CF911F910F910895CF92DF92FF920F93C6
:1018D0001F93CF93DF9300D000D0CDB7DEB76C015C
:1018E000F62E29833A834B835C830E94040CC60145
:1018F0000E94EE0B6CE271E0C6010E94490C8F2D34
:1019000080640E94C50B08E110E05C814B813A8144
:101910002981DA01C901002E04C0B695A7959795D3
:1019200087950A94D2F729833A834B835C830E947C
:10193000C50B0850110929813A814B815C81083F10
:101940008FEF180731F7FF2029F0E8E0FE1204C0FE
:1019500087E803C085E901C08FEF0E94C50B10E046
:101960000E94CC0BF601828787FF04C01F3F11F055
:101970001F5FF6CF0F900F900F900F90DF91CF91D8
:101980001F910F91FF90DF90CF9008958F929F92BB
:10199000AF92BF92EF92FF920F931F93CF93DF937B
:1019A000EC01E62E1B8619861E821D824C830E9446
:1019B0009A224B015C0161E08C810E94762361E0F8
:1019C0008C810E94B2230E94B31A82E580937D032A
:1019D00010927E0380917D0390917E030E94AB0B59
:1019E0001AE08FEF0E94C50B1150D9F784010E94B5
:1019F000CF0BCE010E94EE0B20E030E0A90160E0A9
:101A0000CE010E94640CF82E8A8781E0F81649F016
:101A10000E949A22601B710B613D774068F381E060
:101A20004CC02AEA31E040E050E068E0CE010E947C
:101A3000640C82FF02C0FB860EC094E0F92E0E9467
:101A4000CC0B8A87FA94F110FACF8A3A11F082E02F
:101A500034C082E08B878B85823021F0812C912CE1
:101A6000540105C0812C912CA12C80E4B82E20E0DB
:101A700030E0A90167E3CE010E94640CA501940146
:101A800069E2CE010E94640C8A87882349F00E9493
:101A90009A22601B710B613D774048F388E00DC0CE
:101AA0008B85823039F520E030E0A9016AE3CE0170
:101AB0000E94640C882389F086E08D83CE010E9409
:101AC000E00B80E0DF91CF911F910F91FF90EF909D
:101AD000BF90AF909F908F9008950E94CC0B807C18
:101AE000803C11F483E08B870E94CC0B0E94CC0BCE
:101AF0000E94CC0BCE010E94E00B6E2DCE01DF9137
:101B0000CF911F910F91FF90EF90BF90AF909F905A
:101B10008F900C941E0C0F931F93CF93DF93EC01C7
:101B20000E949A228B010E94CC0B8A878F3F49F436
:101B30000E949A22601B710B6D327140A0F38FE0FE
:101B400003C08E3F39F08DE08D83CE010E94E00B03
:101B500080E001C081E0DF91CF911F910F91089546
:101B6000CF92DF92EF92FF920F931F93CF93DF9369
:101B7000EC016901C801820F931F8130924008F087
:101B80005CC08E81882371F088819981AA81BB8194
:101B9000481759076A077B0729F48F819885C8166B
:101BA000D90610F5488359836A837B838B858330FC
:101BB00039F089E0440F551F661F771F8A95D1F7CA
:101BC0009A01AB0161E1CE010E94640C882319F0F7
:101BD00083E08D8332C0CE010E948B0D882369F192
:101BE00018861F8281E08E838F8198858C159D05D4
:101BF00040F40E94CC0B8F819885019698878F8343
:101C0000F3CF6701E00EF11ECE14DF0431F00E9425
:101C1000CC0BF60181936F01F7CF8F819885080F68
:101C2000191F18870F838985882319F00115124021
:101C300048F0CE010E94040C05C0CE010E94E00BCA
:101C400080E001C081E0DF91CF911F910F91FF9063
:101C5000EF90DF90CF900895EF92FF920F931F9334
:101C60000115110519F00E94B00D01C081E01F910E
:101C70000F91FF90EF900895EF92FF920F931F93B3
:101C8000790100E012E020E030E00E94B00D1F91E9
:101C90000F91FF90EF900895CF92DF92EF92FF9215
:101CA0000F931F93CF93DF9300D0CDB7DEB78C0196
:101CB000862F49835A830E94C50B4981C42E5A81BD
:101CC000D52E76018EEFF81AF60181916F010E94F0
:101CD000C50BCE14DF04C1F78FEF0E94C50B8FEF49
:101CE0000E94C50B0E94CC0BF8018287982F9F7130
:101CF000953039F081E18583C8010E94E00B80E0D6
:101D000001C081E00F900F90DF91CF911F910F9153
:101D1000FF90EF90DF90CF9008950F931F93CF9394
:101D2000DF93EC018901411551056105710511F43D
:101D300082E132C08B85833039F089E0440F551F32
:101D4000661F771F8A95D1F79A01AB0168E1CE0132
:101D50000E94640C882311F084E01EC0A8016EEF7D
:101D6000CE010E944C0E8823C1F068E572E0CE01DE
:101D70000E94490C811102C085E10EC020E030E0D4
:101D8000A9016DE0CE010E94640C811104C00E9483
:101D9000CC0B882339F084E18D83CE010E94E00BC7
:101DA00080E004C0CE010E94E00B81E0DF91CF9182
:101DB0001F910F910895EDE7F3E080E58083118294
:101DC0000895CF93DF93EC019C012A5F3F4F41E0E0
:101DD00050E060E070E08B8D9C8D0E94311888236C
:101DE000A1F08F89988DA98DBA8D892B8A2B8B2B89
:101DF00059F48E819F81A885B9858F8B988FA98F83
:101E0000BA8F8C8180688C8381E0DF91CF910895B7
:101E1000CF92DF92EF92FF921F93CF93DF93EC016B
:101E20000E94E10E811102C080E04AC0EB8DFC8D62
:101E3000CE80DF80E884F98482E0C81AD108E10806
:101E4000F108058404C0CC0CDD1CEE1CFF1C0A94B8
:101E5000D2F786859785A089B189C80ED91EEA1E5A
:101E6000FB1E148181E0C81AD108E108F108112392
:101E700061F0C701B601610F711D811D911D0E94A6
:101E80008016882389F21150F2CFEB8DFC8D80E013
:101E900092E0A0E0B0E0058404C0880F991FAA1F5B
:101EA000BB1F0A94D2F74B895C896D897E89840FA8
:101EB000951FA61FB71F8B8B9C8BAD8BBE8B81E0B4
:101EC000DF91CF911F91FF90EF90DF90CF90089519
:101ED000CF93DF93EC01462F6E857F8588899989A2
:101EE0000E944516882341F08A8920E2829FC00122
:101EF000112488579C4F02C080E090E0DF91CF9181
:101F00000895FB019B01255F3F4F40E24193E2179B
:101F1000F307E1F7DC0190E027E08D91882319F1C8
:101F20008E3219F0E8E6F0E008C02A3009F198E0B6
:101F30002AE0F3CF31963817D9F034913111FACF26
:101F40002917B0F03FED380F3E3590F431E0390FEE
:101F5000FB01E90FF11D9FE9980F9A3108F48052B7
:101F60008083932FDACF81E0FB019081903209F4D6
:101F700080E008950F931F93CF93DF93FC01258199
:101F8000222311F080E042C08B01EC01FB01878924
:101F90008031B1F482E08D831F8A188E198E1A8EDB
:101FA000808D918DA0E0B0E025E0880F991FAA1FD9
:101FB000BB1F2A95D1F78B8B9C8BAD8BBE8B15C02D
:101FC000803201F783E08D83FB01428D538D648D58
:101FD000758D4F8B588F698F7A8F9E012D5E3F4F85
:101FE000C8010E942817882369F21C8F0B8F81E09B
:101FF0008C831E821F82188619861A861B861C8671
:102000001D861E861F86188A198A1A8ADF91CF912B
:102010001F910F9108952F923F924F925F926F926E
:102020007F928F929F92AF92BF92CF92DF92EF9268
:10203000FF920F931F93CF93DF93EC015B014A0153
:102040008D81811103C08FEF9FEFD7C08C8180FFFE
:10205000FACF4B885C886D887E884A855B856C8565
:102060007D85C401A0E0B0E093018201041B150B43
:10207000260B370B081719072A073B0718F44201EC
:10208000841A950A24011E0126E0220E311C4114F7
:10209000510409F47EC04A855B856C857D856A01A3
:1020A00081E0D822ED818A019B0189E03695279550
:1020B000179507958A95D1F78B8D9C8DE23061F449
:1020C000FC01828D938DA48DB58DBC01CD01600F77
:1020D000711F821F931F3FC0FC0174807A9470228D
:1020E000C114D104C9F4711017C0452B462B472BDE
:1020F00049F48F89988DA98DBA8D8E839F83A88787
:10210000B9870AC04E815F816885798591010E94F7
:10211000A416882309F497CFEB8DFC8D8E819F81C7
:10212000A885B9850297A109B109058404C0880F63
:10213000991FAA1FBB1F0A94D2F74685578560894D
:102140007189840F951FA61FB71FBC01CD01670DB4
:10215000711D811D911D20E032E02C193D093201D5
:102160002415350508F439012C8126FD04C06114BD
:10217000F2E07F0679F500910701109108012091A6
:10218000090130910A01601771078207930719F45A
:1021900021C0C40132C0750183019601AB01BC01AD
:1021A00080918603909187030E942C0E882309F466
:1021B0004ACFA60CB71C8A859B85AC85BD85860D4C
:1021C000971DA11DB11D8A879B87AC87BD874618C7
:1021D00057085DCF40E00E944516882309F433CFAD
:1021E000F601E857FC4FD501CF01860D971DE81782
:1021F000F907F9F221912D93FACFDF91CF911F9139
:102200000F91FF90EF90DF90CF90BF90AF909F9095
:102210008F907F906F905F904F903F902F90089598
:10222000FF920F931F93CF93DF931F92CDB7DEB72B
:10223000FC012581223018F480E090E033C08C014D
:10224000FC01428553856485758585E076956795A3
:10225000579547958A95D1F7F42FFF70FF2E41E0EF
:1022600050E0BE016F5F7F4FC8010E940B100197C5
:1022700019F4898190E002C08FEF9FEF0196E1F29F
:10228000F80182859385A485B5854F96A11DB11D62
:1022900082879387A487B587F0E2FF9EC00111244F
:1022A00088579C4F0F90DF91CF911F910F91FF9016
:1022B00008958F929F92AF92BF92CF92DF92EF924A
:1022C000FF920F931F93CF93DF93EC018D818111C8
:1022D00002C080E077C00B891C892D893E890417D4
:1022E000150726073707A8F36A017B01823029F416
:1022F000CA86DB86EC86FD860DC0C114D104E104DC
:10230000F10451F41E821F82188619861A861B86D4
:102310001C861D8681E056C08A849B84AC84BD8463
:10232000EB8DFC8D258530E0275F3F4FB501A40183
:102330004150510961097109022E04C076956795D3
:10234000579547950A94D2F7D701C6010197A1097D
:10235000B10904C0B695A795979587952A95D2F7A8
:1023600084179507A607B70720F089288A288B28A5
:1023700049F44F89588D698D7A8D4E835F836887C4
:10238000798704C0841B950BA60BB70B4C015D012C
:102390008E010A5F1F4F81149104A104B10409F456
:1023A000A7CF4E815F816885798598018B8D9C8D43
:1023B0000E94A41691E0891A9108A108B108811120
:1023C000EACF87CFDF91CF911F910F91FF90EF90D0
:1023D000DF90CF90BF90AF909F908F9008950F9314
:1023E0001F93CF93DF93EC018D818823C9F18C81FA
:1023F00087FF30C061E0CE010E94680F8C01892BFD
:1024000079F18D81823048F48B899C89AD89BE89B0
:10241000F801848F958FA68FB78F8F89988DA98D9E
:10242000BA8DF801938F828FB58BA48BE0917F03D7
:10243000F0918003309759F0B8016A5E7F4FC80170
:1024400048960995F801808D918D938B828B8C81B4
:102450008F778C83DF91CF911F910F910C940A1687
:1024600080E0DF91CF911F910F910895CF93DF937B
:10247000EC010E94EF11882311F01D8281E0DF91B1
:10248000CF9108954F925F926F927F928F929F9219
:10249000AF92BF92EF92FF920F931F93CF93DF9370
:1024A00000D000D0CDB7DEB7FC0185818130E9F4E2
:1024B000848181FF1AC083899489A589B68984178C
:1024C0009507A607B70788F0892B8A2B8B2B09F471
:1024D00079C04A015B017F0142845384648475841E
:1024E000CF010E945911811102C080E06CC0F70138
:1024F000838D948D81149104A104B10471F44789F2
:10250000508D618D728D0E944619882371F3F701F9
:10251000178A108E118E128E3AC0F70146815781AC
:10252000608571859E012F5F3F4F0E94A41688230E
:10253000E1F249815A816B817C81F701838D948D11
:10254000FC012789203129F008EF1FEF2FEF3FE032
:1025500004C008EF1FEF20E030E04017510762078A
:102560007307A8F40E944619882309F4BECFF70127
:1025700046815781608571850FEF1FEF2FEF3FE098
:10258000838D948D0E949117882309F4AECFF701B3
:10259000838A948AA58AB68A848180688483C701E5
:1025A0000E94EF11882309F4A0CFB501A4014814BB
:1025B00059046A047B0410F4B301A201C7010E940C
:1025C000591101C081E00F900F900F900F90DF9193
:1025D000CF911F910F91FF90EF90BF90AF909F9080
:1025E0008F907F906F905F904F9008951F93CF933F
:1025F000DF93EC0180E2689FF00111249F012857CE
:102600003C4FD9011B969C91917129F0842F8274C3
:1026100011F080E05BC0142F6A8B809107019091CC
:102620000801A0910901B0910A018E879F87A88BAC
:10263000B98BE857FC4F4489558960E070E0BA01D6
:10264000552744274F8B588F698F7A8F828D938DB2
:10265000A0E0B0E0482B592B6A2B7B2B4F8B588F77
:10266000698F7A8FD9011B968C91887151F4848D72
:10267000958DA68DB78D8B8B9C8BAD8BBE8B81E0A2
:102680000DC0803131F69E012D5E3F4F8B8D9C8DAC
:102690000E942817882309F4BCCF84E08D83812F02
:1026A0008F708C831E821F82188619861A861B865D
:1026B0001C861D8616FF09C040E050E0BA01CE011D
:1026C000DF91CF911F910C94421281E0DF91CF9165
:1026D0001F910895CF92DF92EF92FF920F931F9375
:1026E000CF93DF93CDB7DEB72C970FB6F894DEBF4C
:1026F0000FBECDBFFC0135813111C2C0D22E8B017E
:102700007C01BE016F5F7F4FCA010E94810F882349
:1027100009F4B6C0F801838D948DF701948F838FEF
:10272000F801168217821086118612861386148687
:10273000158630E0F80182859385A485B5854389A7
:1027400054896589768984179507A607B70708F025
:1027500041C025E0B695A795979587952A95D1F71D
:10276000F82FFF70CF2EC8013C870E9410113C85C6
:10277000009709F485C0FC012081222309F484C05C
:10278000253E99F04BE050E0BC01CE0101963C871C
:102790000E9480253C85892B69F68D2D80738033BE
:1027A00009F46EC04D2D6C2D67C031116BC0F7015F
:1027B000C28A40910701509108016091090170910E
:1027C0000A0146875787608B718BFC01808131E05D
:1027D0008111B0CF8D2D8271823109F051C0332328
:1027E00041F061E0C7010E94680F8C01892B79F4E8
:1027F00047C0F8018581823009F442C0C8010E94B7
:10280000080F8823E9F1F701128A08E813E080E253
:10281000F80111928A95E9F78BE0FE013196D80113
:1028200001900D928A95E1F7E0917F03F09180038A
:10283000309739F0B801625F7F4FC8014096099523
:1028400009C081E298E2F801918B808B80E098E0EA
:1028500097878687F80180899189938B828B918FE6
:10286000808F86859785978B868B0E940A16882392
:1028700039F04D2DF7016289C7010E94F61209C097
:1028800080E007C031E056CF332309F490CF31E028
:10289000A1CF2C960FB6F894DEBF0FBECDBFDF914F
:1028A000CF911F910F91FF90EF90DF90CF900895FF
:1028B0002F923F924F925F926F927F928F929F9250
:1028C000AF92BF92CF92DF92EF92FF920F931F933E
:1028D000CF93DF9300D000D0CDB7DEB78C016B0172
:1028E0003A01DC0115968C9115978130C9F4149644
:1028F0008C9181FF15C082FF1DC0F8014389548966
:102900006589768982859385A485B5858417950721
:10291000A607B70779F0C8010E94591181110AC0B2
:1029200081E090E0D80113969C938E93129780E0FB
:1029300090E048C1430184C0D8015B968D919C9181
:102940005C97FC0154802FEF250D1A012B0139E013
:1029500056944794379427943A95D1F7522E5220A3
:102960007A01F1E0FF22552009F476C080E092E080
:102970008E199F0954018815990508F45C01D80146
:102980005B962D913C915C9716968D919D910D9043
:10299000BC91A02D0297A109B109F901058404C0D9
:1029A000880F991FAA1FBB1F0A94D2F74685578527
:1029B00060897189840F951FA61FB71F9C01AD0107
:1029C000250D311D411D511D19012A01A11432E0AF
:1029D000B30609F088C08091070190910801A09189
:1029E0000901B0910A0182159305A405B50559F4B2
:1029F0008FEF9FEFDC018093070190930801A09374
:102A00000901B0930A019601B201A10180918603E8
:102A1000909187030E948D0E882309F481CF9EEF49
:102A2000D91A8A189B08F80182859385A485B585F3
:102A30008A0D9B1DA11DB11D82879387A487B58731
:102A4000D8011A964D915D916D917C911D978114DD
:102A5000910409F071CF87C0E114F10409F086CF29
:102A600016964D915D916D917C9119974115510587
:102A70006105710559F457968D919D910D90BC910A
:102A8000A02D0097A105B10541F521C09E012F5F42
:102A90003F4F0E94A416882309F44ACF89819A8166
:102AA000AB81BC81F801238D348DF9012789203158
:102AB00029F048EF5FEF6FEF7FE004C048EF5FEF72
:102AC00060E070E084179507A607B70730F0C801EB
:102AD0000E94E10E81114ACF23CFF80186839783AC
:102AE000A087B18743CFE114F10429F5D8011A96E4
:102AF0004D915D916D917C911D9753968D919D9116
:102B00000D90BC91A02D481759076A077B0798F0D4
:102B10000E940A16882309F403CF209207013092FD
:102B200008014092090150920A0180918503816059
:102B30008093850308C041E0C201B1010E9445169F
:102B4000882309F4EDCED601F701E857FC4FCF01F9
:102B50008A0D9B1DE817F90719F02D912193FACFE3
:102B6000CA0CDB1C5ECF5396CD90DD90ED90FC90AF
:102B7000569714968C91C416D506E606F70640F4CF
:102B8000F801438B548B658B768B806884830DC0F2
:102B900020917F0330918003232B39F0611471045D
:102BA00021F08068D80114968C93F801848183FD0C
:102BB00002C0C30107C0C8010E94EF11882309F4B5
:102BC000AFCEF7CF0F900F900F900F90DF91CF9176
:102BD0001F910F91FF90EF90DF90CF90BF90AF903B
:102BE0009F908F907F906F905F904F903F902F902D
:102BF0000895CF93DF931F92CDB7DEB7698341E08D
:102C000050E0BE016F5F7F4F0E9458140F90DF911C
:102C1000CF910895809185038823A9F14091070100
:102C2000509108016091090170910A0128E833E090
:102C300080918603909187030E948D0E811102C0BE
:102C400080E0089540918103509182036091830355
:102C500070918403411551056105710591F028E8D3
:102C600033E080918603909187030E948D0E882324
:102C700039F3109281031092820310928303109211
:102C800084031092850381E00895CF92DF92EF9242
:102C9000FF92CF936B017C01C42F8091070190912B
:102CA0000801A0910901B0910A018C159D05AE059E
:102CB000BF05D1F00E940A16811102C080E01AC03F
:102CC00028E833E0B701A60180918603909187033D
:102CD0000E943C0E882391F3C0920701D092080114
:102CE000E0920901F0920A0180918503C82BC093FC
:102CF000850381E0CF91FF90EF90DF90CF90089512
:102D0000CF92DF92EF92FF926B017C010E940A1634
:102D10008823A9F0E8E8F3E0119285E0E838F807A5
:102D2000D9F7C0920701D0920801E0920901F09210
:102D30000A018091850381608093850381E0FF9083
:102D4000EF90DF90CF9008958F929F92AF92BF92B5
:102D5000CF92DF92EF92FF920F931F93CF93DF9367
:102D6000FC0181859285A385B4850196A11DB11DC5
:102D700084179507A607B70710F480E05CC0838925
:102D80009489A589B689C789C03129F4852E962EE4
:102D9000A72EBB2409C04A015B01C7E0B694A794E3
:102DA00097948794CA95D1F7E9016A017B018F0155
:102DB000BC01CD01680D791D8A1D9B1D8090070106
:102DC00090900801A0900901B0900A01681579055A
:102DD0008A059B0599F4F80187898031A9F4B70128
:102DE000A601552766277727440F551FFA01E85794
:102DF000FC4F80819181A0E0B0E018C040E00E94CB
:102E000045168111E8CFB9CFB701A6014F775527F5
:102E100066277727440F551F440F551FFA01E857BF
:102E2000FC4F80819181A281B381BF708883998397
:102E3000AA83BB8381E0DF91CF911F910F91FF9017
:102E4000EF90DF90CF90BF90AF909F908F900895BC
:102E50004F925F926F927F92AF92BF92CF92DF922A
:102E6000EF92FF920F931F93CF93DF9300D000D088
:102E7000CDB7DEB78C0149835A836B837C835901BC
:102E8000C12CD12C7601412C82E0582E612C712C62
:102E900049815A816B817C819E012F5F3F4FC80120
:102EA0000E94A416882351F1D301C201F8010584C0
:102EB00004C0880F991FAA1FBB1F0A94D2F7C80E1F
:102EC000D91EEA1EFB1E49815A816B817C8187894C
:102ED000803129F088EF9FEFAFEFBFE004C088EFAB
:102EE0009FEFA0E0B0E0481759076A077B0780F220
:102EF000F501C082D182E282F38281E00F900F90CF
:102F00000F900F90DF91CF911F910F91FF90EF9055
:102F1000DF90CF90BF90AF907F906F905F904F9079
:102F200008954F925F926F927F928F929F92AF928D
:102F3000BF92CF92DF92EF92FF920F931F93CF93A6
:102F4000DF93EC016A017B01280139014230510510
:102F50006105710510F480E073C089859A85AB85A1
:102F6000BC850196A11DB11D84179507A607B7075B
:102F700090F38B889C88AD88BE888F89803129F436
:102F8000BB27AF2D9E2D8D2D09C0DB01CA0147E067
:102F9000B695A795979587954A95D1F7880E991E6E
:102FA000AA1EBB1E8091070190910801A091090102
:102FB000B0910A0188169906AA06BB0679F48F8992
:102FC0008031A1F4DD24EE24FF24C601880F991F6F
:102FD000FC01E857FC4F5182408219C040E0C50116
:102FE000B4010E9445168111EACFB5CFE894C7F825
:102FF000DD24EE24FF24C601880F991F880F991F36
:10300000FC01E857FC4F40825182628273828091BA
:1030100085038160809385038A89823080F08D8169
:103020009E81AF81B885880E991EAA1EBB1E809214
:10303000810390928203A0928303B092840381E083
:10304000DF91CF911F910F91FF90EF90DF90CF9084
:10305000BF90AF909F908F907F906F905F904F90B8
:1030600008952F923F924F925F926F927F929F921C
:10307000AF92BF92CF92DF92EF92FF920F931F9386
:10308000CF93DF93CDB7DEB760970FB6F894DEBF6E
:103090000FBECDBF5C0149875A876B877C871901BA
:1030A000D901CD90DD90ED90FC90C114D104E104E4
:1030B000F10431F0BFEFCB1ADB0AEB0AFB0A10C0B8
:1030C000FC01C080D180E280F3809924939409852B
:1030D0001A852B853C85013011052105310509F044
:1030E000912CF50181859285A385B4858C019D0184
:1030F0000F5F1F4F2F4F3F4F0D871E872F87388B36
:10310000260137011D821E821F821886F5018185E6
:103110009285A385B4850D811E812F81388508177E
:1031200019072A073B0708F056C02D853E854F85B5
:103130005889241535054605570550F482E0482E78
:10314000512C612C712C92E0C92ED12CE12CF12C48
:103150009E012F5F3F4FB301A201C5010E94A4163B
:103160008823C9F149815A816B817C81D301C201D5
:103170000196A11DB11D452B462B472B19F06C0163
:103180007D010FC0AC01BD014C195D096E097F09BD
:1031900009851A852B853C854017510762077307FF
:1031A00079F02D813E814F8158852F5F3F4F4F4FE2
:1031B0005F4F2D833E834F8358872C013D01A6CF5F
:1031C0000FEF1FEF2FEF3FE0B301A201C5010E94F7
:1031D0009117811118C080E041C0D301C20101974D
:1031E000A109B1098D839E83AF83B88793018201C2
:1031F000AC01BD01C5010E949117882361F34D8088
:103200005E806F807884C414D504E604F70428F344
:10321000D1014D915D916D917C91411551056105F3
:10322000710599F4F101C082D182E282F382992082
:10323000A1F0FFEFCF1ADF0AEF0AFF0AD501CD9206
:10324000DD92ED92FC92139708C097018601C501AB
:103250000E9491178111E6CFBECF81E060960FB634
:10326000F894DEBF0FBECDBFDF91CF911F910F91BC
:10327000FF90EF90DF90CF90BF90AF909F907F90A6
:103280006F905F904F903F902F900895AF92BF92B4
:10329000CF92DF92EF92FF920F931F93CF93DF9322
:1032A00000D000D0CDB7DEB75C016A017B0182E0BF
:1032B00090E0A0E0B0E0F50180839183A283B38326
:1032C0009E012F5F3F4FB701A601C5010E94A416C2
:1032D000882311F100E010E09801B701A601C501B3
:1032E0000E9491178823C1F0C980DA80EB80FC80AE
:1032F000F5018789803129F088EF9FEFAFEFBFE0BC
:1033000004C088EF9FEFA0E0B0E0C816D906EA0637
:10331000FB06B0F281E001C080E00F900F900F90AB
:103320000F90DF91CF911F910F91FF90EF90DF9061
:10333000CF90BF90AF9008958F929F92AF92BF921F
:10334000CF92DF92EF92FF920F931F93CF93DF9371
:10335000EC01142F7093870360938603442369F173
:10336000453010F080E0F2C040E060E070E0CB015A
:103370000E9445168823B1F320E1129FA001112479
:1033800048585C4FFA01E254FE4F80818F7751F725
:103390003C9680819181A281B38184369105A105FB
:1033A000B10500F33497C080D180E280F380C1146E
:1033B000D104E104F10421F4D5CFC12CD12C760144
:1033C00040E0C701B6010E944516882359F280915A
:1033D0009303909194038115924021F69091980364
:1033E000992309F4BFCF2091960330919703232BA3
:1033F00009F4B8CF80919503882309F4B3CF9A8B51
:103400008C831D8690E061E070E02D85E22FAB019A
:10341000022E02C0440F551F0A94E2F78417950745
:1034200031F031E0320F3D87283078F39BCF209187
:103430009E0330919F032115310519F040E050E0C3
:1034400008C02091AC033091AD034091AE03509180
:10345000AF032D833E834F835887809196039091CD
:10346000970346015701880E991EA11CB11C8B8A37
:103470009C8AAD8ABE8A0091990310919A03198F94
:10348000088FA0919803B0E00E942E24860E971E0C
:10349000A81EB91E8A8E9B8EAC8EBD8E85E0000F55
:1034A000111F8A95E1F701501E4F012F1127069534
:1034B000800E911EA11CB11C8E869F86A88AB98A97
:1034C00020919B0330919C032115310521F0A90126
:1034D00060E070E008C04091A8035091A90360919A
:1034E000AA037091AB03D701C60188199909AA09EB
:1034F000BB09840F951FA61FB71F04C0B695A795DB
:1035000097958795EA95D2F789879A87AB87BC8785
:10351000853F2FE09207A105B10510F48CE014C09F
:10352000853F9F4FA105B10510F480E10DC080914A
:10353000B4039091B503A091B603B091B7038A8FFD
:103540009B8FAC8FBD8F80E28F8B81E0DF91CF911D
:103550001F910F91FF90EF90DF90CF90BF90AF90B1
:103560009F908F900895CF93CFB7F89480918B055B
:10357000811127C0EAEAF0E08491E6E9F0E0949155
:10358000E82FF0E0EE0FFF1FE853FF4FA591B49135
:10359000EC91E92321F461E08AE00E94B22361E02A
:1035A0008AE00E9476238CB580618CBD8CB58064E6
:1035B0008CBD61E08DE00E94762361E08BE00E948B
:1035C000762380918B058F5F80938B05CFBFCF9142
:1035D00008951F920F920FB60F9211242F933F93CD
:1035E0004F935F936F937F938F939F93AF93BF930B
:1035F000EF93FF93E0918C05F0918D050995FF9174
:10360000EF91BF91AF919F918F917F916F915F915A
:103610004F913F912F910F900FBE0F901F901895D3
:103620001092FE0581E08093FC051092FB0561E09D
:1036300082E10E94B22361E083E10E94B223E9EBC0
:10364000F0E080818E7F808380818D7F808388E41D
:103650008093B80085E48093BC0008950F934132B5
:1036600008F04AC09091FE059111FCCF32E03093F2
:10367000FE050093FC053FEF309391051092D605AF
:103680004093D505FB0167ED75E0DB013A2F361B52
:10369000341718F431913D93F9CF1092FD05309114
:1036A000FD05880F832B8093FD058091FB058130FC
:1036B00061F41092FB058091FD058093BB00809121
:1036C000BC0083FDF8CF85EC01C085EE8093BC0083
:1036D000222321F08091FE058230D1F38091910563
:1036E0008F3F79F080919105803241F08091910572
:1036F000803331F094E005C091E003C092E001C056
:1037000093E0892F0F910895613298F42091FE057E
:10371000243089F46093B305FC0125EB35E0D90131
:103720008A2F821B861718F481918D93F9CF80E040
:10373000089581E0089582E0089585ED8093BC00AE
:103740008091BC0084FDFCCF1092FE05089585ECAD
:103750008093BC001092FE0508951F920F920FB641
:103760000F9211242F933F934F935F936F937F9307
:103770008F939F93AF93BF93EF93FF938091B90083
:10378000887F803609F49EC078F5883209F45DC0E0
:1037900090F4803109F456C038F4882309F4F5C058
:1037A000883009F44FC0F5C0883109F44EC080322A
:1037B00009F45FC0EEC0803409F46AC058F4803365
:1037C00009F457C0883309F0E4C0809391050E9442
:1037D000A71BDFC0803509F44FC0883509F45DC0F0
:1037E000883409F0D6C0D3C0883909F4C4C0A8F41D
:1037F000883709F467C038F4883609F463C0803725
:1038000009F460C0C6C0883809F4B5C0803909F42D
:103810005FC0803809F0BDC05BC0803B09F483C045
:1038200038F4803A09F466C0883A09F47CC0B1C023
:10383000803C09F4A4C0883C09F4A1C0883B09F489
:1038400087C0A7C08091FD0510C09091D6058091DA
:10385000D505981770F5E091D60581E08E0F80931D
:10386000D605F0E0E952FA4F80818093BB0085ECE9
:1038700083C0809391058BC0E091D60581E08E0FC7
:103880008093D6058091BB00F0E0E952FA4F808327
:103890009091D6058091D5056BC0E091D60581E069
:1038A0008E0F8093D6058091BB00F0E0E952FA4F6D
:1038B00080838091FC0581116AC081E08093FB05C3
:1038C00084EA5EC083E08093FE0510929205CFCF1C
:1038D00080919205803208F04EC0E091920581E01F
:1038E0008E0F809392058091BB00F0E0ED56FA4F69
:1038F0008083BDCF0E94A71B80919205803230F457
:10390000E0919205F0E0ED56FA4F10826091920539
:1039100070E0E091F705F091F80583E995E00995ED
:103920001092920536C084E08093FE051092B40593
:103930001092B305E091F905F091FA05099580918F
:10394000B305811105C081E08093B3051092B505E0
:10395000E091B40581E08E0F8093B405F0E0EB5464
:10396000FA4F80818093BB009091B4058091B3059C
:10397000981708F47CCF85E88093BC000AC085ECDA
:103980008093BC001092FE0504C0109291050E9425
:103990009D1BFF91EF91BF91AF919F918F917F916F
:1039A0006F915F914F913F912F910F900FBE0F90AC
:1039B0001F90189580912F0690E020913006821B71
:1039C000910908959091300680912F06981750F430
:1039D000E92FF0E0EF5CF94F208130E09F5F90939A
:1039E000300602C02FEF3FEFC9010895E091300685
:1039F00080912F06E81730F4F0E0EF5CF94F8081FA
:103A000090E008958FEF9FEF08950895CF92DF9291
:103A1000EF92FF920F931F93CF93DF937C01262F9A
:103A2000972F8A0180910B06882391F0C62FD72FFC
:103A30006E01C40ED51ECC15DD0571F06991D7015C
:103A4000ED91FC910190F081E02DC7010995F3CF34
:103A5000642F822F0E94841BC801DF91CF911F9198
:103A60000F91FF90EF90DF90CF900895CF93DF9369
:103A70001F92CDB7DEB7698320910B062223D1F0C8
:103A800020910C06203240F021E030E0FC0133832D
:103A9000228380E090E015C080910D06E82FF0E0D1
:103AA000E25FF94F998190838F5F80930D06809339
:103AB0000C0605C061E0CE0101960E94841B81E0E6
:103AC00090E00F90DF91CF910895FC011382128254
:103AD00088EE93E0A0E0B0E084839583A683B7836B
:103AE00085ED91E0918380830895109230061092C5
:103AF0002F0610920D0610920C060C94101B81E0FC
:103B000080930B0660932E0610920D0610920C0601
:103B100008950F93062F21E040910C066EE076E0A9
:103B200080912E060E942E1B10920D0610920C06FC
:103B300010920B060F91089561E00C94891D8FEF90
:103B400095E00C94651D0E94B71D0C94981E0E9470
:103B5000911E58F00E948A1E40F029F45F3F29F020
:103B60000C94811E51110C94CC1E0C94871E0E9443
:103B7000A91E68F39923B1F3552391F3951B550BB7
:103B8000BB27AA2762177307840738F09F5F5F4F30
:103B9000220F331F441FAA1FA9F335D00E2E3AF06F
:103BA000E0E832D091505040E695001CCAF72BD087
:103BB000FE2F29D0660F771F881FBB1F26173707D8
:103BC0004807AB07B0E809F0BB0B802DBF01FF270A
:103BD00093585F4F3AF09E3F510578F00C94811E48
:103BE0000C94CC1E5F3FE4F3983ED4F38695779512
:103BF0006795B795F7959F5FC9F7880F911D9695C3
:103C0000879597F90895E1E0660F771F881FBB1F1E
:103C1000621773078407BA0720F0621B730B840BCB
:103C2000BA0BEE1F88F7E09508950E94B11E88F048
:103C30009F5798F0B92F9927B751B0F0E1F0660F70
:103C4000771F881F991F1AF0BA95C9F714C0B130B1
:103C500091F00E94CB1EB1E008950C94CB1E672F0B
:103C6000782F8827B85F39F0B93FCCF386957795E0
:103C70006795B395D9F73EF49095809570956195C9
:103C80007F4F8F4F9F4F0895E89409C097FB3EF4F4
:103C900090958095709561957F4F8F4F9F4F992399
:103CA000A9F0F92F96E9BB279395F6958795779517
:103CB0006795B795F111F8CFFAF4BB0F11F460FFD7
:103CC0001BC06F5F7F4F8F4F9F4F16C0882311F02F
:103CD00096E911C0772321F09EE8872F762F05C043
:103CE000662371F096E8862F70E060E02AF09A95DE
:103CF000660F771F881FDAF7880F9695879597F9D3
:103D0000089597F99F6780E870E060E008959FEF5D
:103D100080EC089500240A94161617061806090662
:103D2000089500240A941216130614060506089531
:103D3000092E0394000C11F4882352F0BB0F40F4B9
:103D4000BF2B11F460FF04C06F5F7F4F8F4F9F4FF9
:103D5000089557FD9058440F551F59F05F3F71F07B
:103D60004795880F97FB991F61F09F3F79F08795E2
:103D70000895121613061406551FF2CF4695F1DF6B
:103D800008C0161617061806991FF1CF86957105FB
:103D9000610508940895E894BB2766277727CB012F
:103DA00097F908950E94E51E0C94981E0E948A1EA1
:103DB00038F00E94911E20F0952311F00C94811E82
:103DC0000C94871E11240C94CC1E0E94A91E70F323
:103DD000959FC1F3950F50E0551F629FF001729FB0
:103DE000BB27F00DB11D639FAA27F00DB11DAA1FBF
:103DF000649F6627B00DA11D661F829F2227B00D0C
:103E0000A11D621F739FB00DA11D621F839FA00D96
:103E1000611D221F749F3327A00D611D231F849FE6
:103E2000600D211D822F762F6A2F11249F5750403D
:103E30009AF0F1F088234AF0EE0FFF1FBB1F661FB8
:103E4000771F881F91505040A9F79E3F510580F081
:103E50000C94811E0C94CC1E5F3FE4F3983ED4F387
:103E6000869577956795B795F795E7959F5FC1F725
:103E7000FE2B880F911D9695879597F908950E94BE
:103E80007B25FC01918D228D892F90E0805C9F4FD6
:103E9000821B91098F7399270895FC01918D828D62
:103EA000981731F0828DE80FF11D858D90E008950F
:103EB0008FEF9FEF0895FC01918D828D981761F02F
:103EC000828DDF01A80FB11D5D968C91928D9F5F51
:103ED0009F73928F90E008958FEF9FEF089584EC89
:103EE00090E2892B49F080E090E0892B29F00E9434
:103EF000C42081110C9400000895FC01848DDF0121
:103F0000A80FB11DA35ABF4F2C91848D90E001964C
:103F10008F739927848FA689B7892C93A089B1893B
:103F20008C9180648C93938D848D981306C0028845
:103F3000F389E02D80818F7D80830895CF93DF9377
:103F4000EC01888D8823C9F0EA89FB89808185FD91
:103F500005C0A889B9898C9186FD0FC00FB607FCF2
:103F6000F5CF808185FFF2CFA889B9898C9185FF33
:103F7000EDCFCE010E947D1FE7CFDF91CF91089555
:103F8000EF92FF920F931F93CF93DF93EC0181E0A9
:103F9000888F9B8D8C8D981305C0E889F989808165
:103FA00085FD24C0F62E0B8D10E00F5F1F4F0F73A1
:103FB0001127E02E8C8DE8120CC00FB607FCFACF4B
:103FC000E889F989808185FFF5CFCE010E947D1FA8
:103FD000F1CF8B8DFE01E80FF11DE35AFF4FF08208
:103FE0000B8FEA89FB898081806207C0EE89FF8997
:103FF0006083E889F98980818064808381E090E032
:10400000DF91CF911F910F91FF90EF900895CF9284
:10401000DF92EF92FF921F93CF93DF93EC016A013F
:104020007B01122FE889F98982E080834115514E86
:1040300061057105B1F060E079E08DE390E0A701E2
:1040400096010E940C24DA01C9010197A109B10966
:10405000B695A79597958795AC01411580E15807CE
:10406000A8F0E889F989108260E874E88EE190E0B0
:10407000A70196010E940C24BA01A90141505109DF
:10408000610971097695679557954795EC85FD858A
:104090005083EE85FF854083188EEC89FD8910835F
:1040A000EA89FB89808180618083EA89FB8980813C
:1040B00088608083EA89FB89808180688083EA89BF
:1040C000FB8980818F7D8083DF91CF911F91FF904D
:1040D000EF90DF90CF9008951F920F920FB60F923E
:1040E00011242F938F939F93EF93FF93E091610699
:1040F000F09162068081E0916706F091680682FD8A
:1041000012C0908180916A068F5F8F7320916B0639
:10411000821751F0E0916A06F0E0EF5AF94F958F5F
:1041200080936A0601C08081FF91EF919F918F91EA
:104130002F910F900FBE0F901F9018951F920F9206
:104140000FB60F9211242F933F934F935F936F936A
:104150007F938F939F93AF93BF93EF93FF9381E5EB
:1041600096E00E947D1FFF91EF91BF91AF919F91CB
:104170008F917F916F915F914F913F912F910F9010
:104180000FBE0F901F90189581E596E00E94411F89
:1041900021E0892B09F420E0822F0895E1E5F6E083
:1041A0001382128288EE93E0A0E0B0E084839583CE
:1041B000A683B78385EE91E09183808385EC90E0C0
:1041C0009587848784EC90E09787868780EC90E0E1
:1041D000918B808B81EC90E0938B828B82EC90E0D2
:1041E000958B848B86EC90E0978B868B118E128E4C
:1041F000138E148E089508950E9412230E94FB20AE
:104200000E944F05CFE6DFE10E94A0002097E1F376
:104210000E946F1FF9CFCF92DF92EF92FF920F9320
:104220001F93CF93DF936C017A018B01C0E0D0E044
:10423000CE15DF0589F0D8016D918D01D601ED9184
:10424000FC910190F081E02DC6010995892B11F4B4
:104250007E0102C02196ECCFC701DF91CF911F9163
:104260000F91FF90EF90DF90CF9008956115710549
:1042700079F0FB0101900020E9F73197AF01461B6F
:10428000570BDC01ED91FC910280F381E02D099444
:1042900080E090E008950C943621DC01ED91FC91D2
:1042A0000190F081E02D099461EF71E00C943621CA
:1042B0000F931F93CF93DF93EC010E9436218C0163
:1042C000CE010E945421800F911FDF91CF911F9149
:1042D0000F9108958F929F92AF92BF92CF92DF92EB
:1042E000EF92FF920F931F93CF93DF93CDB7DEB77B
:1042F000A1970FB6F894DEBF0FBECDBF7C01D42EC0
:10430000C52EDB0119A2223008F42AE08E010F5DD0
:104310001F4F822E912CA12CB12C6D2D7C2DCD0107
:10432000A50194010E940C24D22EC32EDA01015063
:1043300011096A3071058105910510F4605D01C0B5
:10434000695CF8016083232B242B252B31F7B801FE
:10435000C7010E943621A1960FB6F894DEBF0FBEAA
:10436000CDBFDF91CF911F910F91FF90EF90DF9024
:10437000CF90BF90AF909F908F900895CF92DF9293
:10438000EF92FF920F931F93CF93DF93EC016A019B
:104390007B012115310579F4E881F9810190F081E3
:1043A000E02D642FDF91CF911F910F91FF90EF903F
:1043B000DF90CF9009942A303105E9F477FF1AC0D5
:1043C0006DE20E944D218C0144275527BA014C19FA
:1043D0005D096E097F092AE0CE010E946A21800FE3
:1043E000911FDF91CF911F910F91FF90EF90DF9080
:1043F000CF9008952AE0B701A601CE01DF91CF91B9
:104400001F910F91FF90EF90DF90CF900C946A2155
:104410000F931F93CF93DF93EC010E94BE218C0179
:10442000CE010E945421800F911FDF91CF911F91E7
:104430000F9108952115310541F4DC01ED91FC91B6
:104440000190F081E02D642F09940C946A210F9360
:104450001F93CF93DF93EC019A01462F50E060E069
:1044600070E00E941A228C01CE010E945421800F1C
:10447000911FDF91CF911F910F9108950F931F937B
:10448000CF93DF93EC010E941A228C01CE010E948F
:104490005421800F911FDF91CF911F910F910895AB
:1044A0001F920F920FB60F9211242F933F938F9369
:1044B0009F93AF93BF938091EF069091F006A091E8
:1044C000F106B091F2063091EE0623E0230F2D376E
:1044D00020F40196A11DB11D05C026E8230F029608
:1044E000A11DB11D2093EE068093EF069093F00678
:1044F000A093F106B093F2068091F3069091F40632
:10450000A091F506B091F6060196A11DB11D80930C
:10451000F3069093F406A093F506B093F606BF91C8
:10452000AF919F918F913F912F910F900FBE0F9060
:104530001F9018952FB7F8946091EF067091F006D0
:104540008091F1069091F2062FBF08953FB7F8943D
:104550008091F3069091F406A091F506B091F606CD
:1045600026B5A89B05C02F3F19F00196A11DB11DCE
:104570003FBFBA2FA92F982F8827820F911DA11D09
:10458000B11DBC01CD0142E0660F771F881F991F46
:104590004A95D1F708958F929F92AF92BF92CF9292
:1045A000DF92EF92FF926B017C010E94A6224B01E9
:1045B0005C01C114D104E104F10401F10E940B2457
:1045C0000E94A622DC01CB0188199909AA09BB091E
:1045D000883E9340A105B10560F321E0C21AD108DD
:1045E000E108F10888EE880E83E0981EA11CB11C3A
:1045F000C114D104E104F10419F7DBCFFF90EF906F
:10460000DF90CF90BF90AF909F908F9008958230B1
:10461000910538F0880F991F880F991F059701970A
:10462000F1F70895789484B5826084BD84B5816083
:1046300084BD85B5826085BD85B5816085BDEEE6AA
:10464000F0E0808181608083E1E8F0E01082808189
:1046500082608083808181608083E0E8F0E08081F7
:1046600081608083E1EBF0E0808184608083E0EB17
:10467000F0E0808181608083EAE7F0E080818460FF
:10468000808380818260808380818160808380815B
:10469000806880831092C1000895833081F028F4EF
:1046A000813099F08230A1F008958730A9F08830E8
:1046B000B9F08430D1F4809180008F7D03C0809167
:1046C00080008F7780938000089584B58F7702C033
:1046D00084B58F7D84BD08958091B0008F7703C02D
:1046E0008091B0008F7D8093B0000895CF93DF93C9
:1046F00090E0FC01E457FF4F2491FC01E056FF4F8E
:104700008491882361F190E0880F991FFC01E853A0
:10471000FF4FC591D491FC01E254FF4FA591B49194
:10472000611109C09FB7F8948881209582238883FE
:10473000EC912E230BC0623061F49FB7F89438815E
:10474000822F809583238883EC912E2B2C939FBFFF
:1047500006C08FB7F894E8812E2B28838FBFDF9196
:10476000CF9108951F93CF93DF93282F30E0F90165
:10477000E858FF4F8491F901E457FF4FD491F901B4
:10478000E056FF4FC491CC23C9F0162F81110E942F
:104790004D23EC2FF0E0EE0FFF1FE254FF4FA591E9
:1047A000B4918FB7F894111105C09C91ED2FE0954D
:1047B000E92302C0EC91ED2BEC938FBFDF91CF91F9
:1047C0001F910895CF93DF93282F30E0F901E85827
:1047D000FF4F8491F901E457FF4FD491F901E0565E
:1047E000FF4FC491CC2391F081110E944D23EC2FF7
:1047F000F0E0EE0FFF1FEC54FF4FA591B491EC9148
:10480000ED2381E090E021F480E002C080E090E0C0
:10481000DF91CF9108950895A1E21A2EAA1BBB1B28
:10482000FD010DC0AA1FBB1FEE1FFF1FA217B3077C
:10483000E407F50720F0A21BB30BE40BF50B661F92
:10484000771F881F991F1A9469F760957095809556
:1048500090959B01AC01BD01CF0108950E943F24BA
:10486000A59F900DB49F900DA49F800D911D1124C4
:104870000895EE0FFF1F0590F491E02D0994A29F7B
:10488000B001B39FC001A39F700D811D1124911D24
:10489000B29F700D811D1124911D0895CF93DF9358
:1048A0008230910510F482E090E0E091F906F091F9
:1048B000FA0620E030E0C0E0D0E0309711F140810E
:1048C000518148175907C0F04817590761F4828190
:1048D0009381209719F09B838A832BC09093FA06CB
:1048E0008093F90626C02115310519F042175307A8
:1048F00018F49A01BE01DF01EF010280F381E02D7F
:10490000DCCF2115310509F1281B390B2430310585
:1049100090F412968D919C9113976115710521F079
:10492000FB019383828304C09093FA068093F90677
:10493000FD01329644C0FD01E20FF31F8193919374
:10494000225031092D933C933AC02091F7063091C3
:10495000F806232B41F4209102013091030130939A
:10496000F8062093F70620910001309101012115EE
:10497000310541F42DB73EB7409104015091050136
:10498000241B350BE091F706F091F806E217F307C8
:10499000A0F42E1B3F0B2817390778F0AC014E5FAF
:1049A0005F4F2417350748F04E0F5F1F5093F806EE
:1049B0004093F7068193919302C0E0E0F0E0CF01CD
:1049C000DF91CF9108950F931F93CF93DF930097BB
:1049D00009F48CC0FC013297138212820091F9060F
:1049E0001091FA060115110581F420813181820FA1
:1049F000931F2091F7063091F8062817390779F5AB
:104A0000F093F806E093F70671C0D80140E050E05B
:104A1000AE17BF0750F412962D913C911397AD013C
:104A20002115310509F1D901F3CF9D01DA01338355
:104A3000228360817181860F971F8217930769F423
:104A4000EC0128813981260F371F2E5F3F4F3183BC
:104A500020838A819B8193838283452B29F4F09361
:104A6000FA06E093F90642C01396FC93EE93129770
:104A7000ED01499159919E01240F351FE217F3076B
:104A800071F480819181840F951F029611969C93F9
:104A90008E938281938113969C938E931297E0E07C
:104AA000F0E0D80112968D919C911397009719F020
:104AB000F8018C01F6CF8D919C9198012E5F3F4FAC
:104AC000820F931F2091F7063091F80628173907B7
:104AD00069F4309729F41092FA061092F90602C090
:104AE000138212821093F8060093F706DF91CF919C
:104AF0001F910F91089581E090E0F8940C94A72500
:104B0000FB01DC0104C08D910190801921F441501A
:104B10005040C8F7881B990B0895FC0181918617B6
:104B200021F08823D9F7992708953197CF01089567
:104B3000FB01DC014150504048F001900D920020F3
:104B4000C9F701C01D9241505040E0F70895F89414
:024B5000FFCF95
:104B52000000FB06200078FFFFFFFF62706D20005F
:104B620054696D65722053746F7020002D2D2D2DA8
:104B72002D2D2D2D2D2D2D2D2D2D2D2D2D2D2D2D63
:104B82002D2D2D2D0054696D657220537461727440
:104B920020004465632042504D0063757272656E59
:104BA200745F62706D3A200063616C635F74696D5B
:104BB20065725F76616C3A200063616C635F746951
:104BC2006D65725F76616C00636F6E6669672E6DEC
:104BD2006574005374617274696E672E2E2E0057CD
:104BE200656C636F6D650000000000CD050B21FF51
:104BF20005CB05CC053F1F00000000CD050B219918
:104C02000780069306780700000000B407CA07A1D0
:104C12000805080F08E6072F0000000000F9150B31
:104C22002100000000361D061DDA1CE21CF61C05E0
:104C32001D00000000C01F0B21411F5B1F4D1F9E66
:104C42001F0D0A006E616E00696E66006F76660067
:00000001FF
